{
  "_format": "hh-sol-artifact-1",
  "contractName": "Create",
  "sourceName": "contracts/VotingContract.sol",
  "abi": [
    {
      "inputs": [],
      "stateMutability": "nonpayable",
      "type": "constructor"
    },
    {
      "anonymous": false,
      "inputs": [
        {
          "indexed": true,
          "internalType": "uint256",
          "name": "candidateId",
          "type": "uint256"
        },
        {
          "indexed": false,
          "internalType": "string",
          "name": "name",
          "type": "string"
        },
        {
          "indexed": false,
          "internalType": "string",
          "name": "age",
          "type": "string"
        },
        {
          "indexed": false,
          "internalType": "string",
          "name": "image",
          "type": "string"
        },
        {
          "indexed": false,
          "internalType": "uint256",
          "name": "voteCount",
          "type": "uint256"
        },
        {
          "indexed": false,
          "internalType": "string",
          "name": "ipfs",
          "type": "string"
        },
        {
          "indexed": false,
          "internalType": "address",
          "name": "_address",
          "type": "address"
        }
      ],
      "name": "CandidateCreate",
      "type": "event"
    },
    {
      "anonymous": false,
      "inputs": [
        {
          "indexed": true,
          "internalType": "uint256",
          "name": "voter_voterId",
          "type": "uint256"
        },
        {
          "indexed": false,
          "internalType": "string",
          "name": "voter_name",
          "type": "string"
        },
        {
          "indexed": false,
          "internalType": "string",
          "name": "voter_image",
          "type": "string"
        },
        {
          "indexed": false,
          "internalType": "address",
          "name": "voter_address",
          "type": "address"
        },
        {
          "indexed": false,
          "internalType": "uint256",
          "name": "voter_allowed",
          "type": "uint256"
        },
        {
          "indexed": false,
          "internalType": "bool",
          "name": "voter_voted",
          "type": "bool"
        },
        {
          "indexed": false,
          "internalType": "uint256",
          "name": "voter_vote",
          "type": "uint256"
        },
        {
          "indexed": false,
          "internalType": "string",
          "name": "voter_ipfs",
          "type": "string"
        }
      ],
      "name": "VoterCreated",
      "type": "event"
    },
    {
      "inputs": [],
      "name": "_candidateId",
      "outputs": [
        {
          "internalType": "uint256",
          "name": "_value",
          "type": "uint256"
        }
      ],
      "stateMutability": "view",
      "type": "function"
    },
    {
      "inputs": [],
      "name": "_voterId",
      "outputs": [
        {
          "internalType": "uint256",
          "name": "_value",
          "type": "uint256"
        }
      ],
      "stateMutability": "view",
      "type": "function"
    },
    {
      "inputs": [
        {
          "internalType": "uint256",
          "name": "",
          "type": "uint256"
        }
      ],
      "name": "candidateAddress",
      "outputs": [
        {
          "internalType": "address",
          "name": "",
          "type": "address"
        }
      ],
      "stateMutability": "view",
      "type": "function"
    },
    {
      "inputs": [
        {
          "internalType": "address",
          "name": "",
          "type": "address"
        }
      ],
      "name": "candidates",
      "outputs": [
        {
          "internalType": "uint256",
          "name": "candidateId",
          "type": "uint256"
        },
        {
          "internalType": "string",
          "name": "name",
          "type": "string"
        },
        {
          "internalType": "string",
          "name": "age",
          "type": "string"
        },
        {
          "internalType": "string",
          "name": "image",
          "type": "string"
        },
        {
          "internalType": "uint256",
          "name": "voteCount",
          "type": "uint256"
        },
        {
          "internalType": "string",
          "name": "ipfs",
          "type": "string"
        },
        {
          "internalType": "address",
          "name": "_address",
          "type": "address"
        }
      ],
      "stateMutability": "view",
      "type": "function"
    },
    {
      "inputs": [],
      "name": "getCandidate",
      "outputs": [
        {
          "internalType": "address[]",
          "name": "",
          "type": "address[]"
        }
      ],
      "stateMutability": "view",
      "type": "function"
    },
    {
      "inputs": [],
      "name": "getCandidateLength",
      "outputs": [
        {
          "internalType": "uint256",
          "name": "",
          "type": "uint256"
        }
      ],
      "stateMutability": "view",
      "type": "function"
    },
    {
      "inputs": [
        {
          "internalType": "address",
          "name": "_address",
          "type": "address"
        }
      ],
      "name": "getCantidateData",
      "outputs": [
        {
          "internalType": "uint256",
          "name": "",
          "type": "uint256"
        },
        {
          "internalType": "string",
          "name": "",
          "type": "string"
        },
        {
          "internalType": "string",
          "name": "",
          "type": "string"
        },
        {
          "internalType": "string",
          "name": "",
          "type": "string"
        },
        {
          "internalType": "uint256",
          "name": "",
          "type": "uint256"
        },
        {
          "internalType": "string",
          "name": "",
          "type": "string"
        },
        {
          "internalType": "address",
          "name": "",
          "type": "address"
        }
      ],
      "stateMutability": "view",
      "type": "function"
    },
    {
      "inputs": [],
      "name": "getVotedVoterList",
      "outputs": [
        {
          "internalType": "address[]",
          "name": "",
          "type": "address[]"
        }
      ],
      "stateMutability": "view",
      "type": "function"
    },
    {
      "inputs": [],
      "name": "getVoterLength",
      "outputs": [
        {
          "internalType": "uint256",
          "name": "",
          "type": "uint256"
        }
      ],
      "stateMutability": "view",
      "type": "function"
    },
    {
      "inputs": [],
      "name": "getVoterList",
      "outputs": [
        {
          "internalType": "address[]",
          "name": "",
          "type": "address[]"
        }
      ],
      "stateMutability": "view",
      "type": "function"
    },
    {
      "inputs": [
        {
          "internalType": "address",
          "name": "_address",
          "type": "address"
        }
      ],
      "name": "getVotersData",
      "outputs": [
        {
          "internalType": "uint256",
          "name": "",
          "type": "uint256"
        },
        {
          "internalType": "string",
          "name": "",
          "type": "string"
        },
        {
          "internalType": "string",
          "name": "",
          "type": "string"
        },
        {
          "internalType": "address",
          "name": "",
          "type": "address"
        },
        {
          "internalType": "uint256",
          "name": "",
          "type": "uint256"
        },
        {
          "internalType": "bool",
          "name": "",
          "type": "bool"
        },
        {
          "internalType": "uint256",
          "name": "",
          "type": "uint256"
        },
        {
          "internalType": "string",
          "name": "",
          "type": "string"
        }
      ],
      "stateMutability": "view",
      "type": "function"
    },
    {
      "inputs": [
        {
          "internalType": "address",
          "name": "_address",
          "type": "address"
        },
        {
          "internalType": "string",
          "name": "_name",
          "type": "string"
        },
        {
          "internalType": "string",
          "name": "_image",
          "type": "string"
        },
        {
          "internalType": "string",
          "name": "_ipfs",
          "type": "string"
        },
        {
          "internalType": "string",
          "name": "_age",
          "type": "string"
        }
      ],
      "name": "setCandidate",
      "outputs": [],
      "stateMutability": "nonpayable",
      "type": "function"
    },
    {
      "inputs": [
        {
          "internalType": "address",
          "name": "_candidateAddress",
          "type": "address"
        },
        {
          "internalType": "uint256",
          "name": "_candidateVoteId",
          "type": "uint256"
        }
      ],
      "name": "vote",
      "outputs": [],
      "stateMutability": "nonpayable",
      "type": "function"
    },
    {
      "inputs": [
        {
          "internalType": "uint256",
          "name": "",
          "type": "uint256"
        }
      ],
      "name": "votedVoters",
      "outputs": [
        {
          "internalType": "address",
          "name": "",
          "type": "address"
        }
      ],
      "stateMutability": "view",
      "type": "function"
    },
    {
      "inputs": [
        {
          "internalType": "address",
          "name": "_address",
          "type": "address"
        },
        {
          "internalType": "string",
          "name": "_name",
          "type": "string"
        },
        {
          "internalType": "string",
          "name": "_image",
          "type": "string"
        },
        {
          "internalType": "string",
          "name": "_ipfs",
          "type": "string"
        }
      ],
      "name": "voterRight",
      "outputs": [],
      "stateMutability": "nonpayable",
      "type": "function"
    },
    {
      "inputs": [
        {
          "internalType": "address",
          "name": "",
          "type": "address"
        }
      ],
      "name": "voters",
      "outputs": [
        {
          "internalType": "uint256",
          "name": "voter_voterId",
          "type": "uint256"
        },
        {
          "internalType": "string",
          "name": "voter_name",
          "type": "string"
        },
        {
          "internalType": "string",
          "name": "voter_image",
          "type": "string"
        },
        {
          "internalType": "address",
          "name": "voter_address",
          "type": "address"
        },
        {
          "internalType": "uint256",
          "name": "voter_allowed",
          "type": "uint256"
        },
        {
          "internalType": "bool",
          "name": "voter_voted",
          "type": "bool"
        },
        {
          "internalType": "uint256",
          "name": "voter_vote",
          "type": "uint256"
        },
        {
          "internalType": "string",
          "name": "voter_ipfs",
          "type": "string"
        }
      ],
      "stateMutability": "view",
      "type": "function"
    },
    {
      "inputs": [
        {
          "internalType": "uint256",
          "name": "",
          "type": "uint256"
        }
      ],
      "name": "votersAddress",
      "outputs": [
        {
          "internalType": "address",
          "name": "",
          "type": "address"
        }
      ],
      "stateMutability": "view",
      "type": "function"
    },
    {
      "inputs": [],
      "name": "votingOrganizer",
      "outputs": [
        {
          "internalType": "address",
          "name": "",
          "type": "address"
        }
      ],
      "stateMutability": "view",
      "type": "function"
    }
  ],
  "bytecode": "0x608060405234801561001057600080fd5b5033600260006101000a81548173ffffffffffffffffffffffffffffffffffffffff021916908373ffffffffffffffffffffffffffffffffffffffff1602179055506124b9806100616000396000f3fe608060405234801561001057600080fd5b50600436106101165760003560e01c80638ab66a90116100a2578063b28d92ae11610071578063b28d92ae1461031d578063b9be31521461033b578063c91ec71214610359578063e60bbdfc14610375578063f7522a83146103ab57610116565b80638ab66a90146102745780638e945685146102aa578063a3ec138d146102c8578063a7388967146102ff57610116565b80635cc48aa7116100e95780635cc48aa7146101b55780635f74bbde146101d35780636915de8d146101ef57806370218b85146102265780637831ffb31461024457610116565b80630361419e1461011b57806305ad45a4146101375780633a88251a1461015557806343242daa14610185575b600080fd5b6101356004803603810190610130919061199b565b6103c9565b005b61013f610641565b60405161014c9190611a6f565b60405180910390f35b61016f600480360381019061016a9190611ab6565b61064e565b60405161017c9190611af2565b60405180910390f35b61019f600480360381019061019a9190611ab6565b61068d565b6040516101ac9190611af2565b60405180910390f35b6101bd6106cc565b6040516101ca9190611af2565b60405180910390f35b6101ed60048036038101906101e89190611b0d565b6106f2565b005b61020960048036038101906102049190611b4d565b6108b9565b60405161021d989796959493929190611c14565b60405180910390f35b61022e610b9e565b60405161023b9190611d65565b60405180910390f35b61025e60048036038101906102599190611ab6565b610c2c565b60405161026b9190611af2565b60405180910390f35b61028e60048036038101906102899190611b4d565b610c6b565b6040516102a19796959493929190611d87565b60405180910390f35b6102b2610eed565b6040516102bf9190611d65565b60405180910390f35b6102e260048036038101906102dd9190611b4d565b610f7b565b6040516102f6989796959493929190611c14565b60405180910390f35b610307611188565b6040516103149190611a6f565b60405180910390f35b610325611194565b6040516103329190611d65565b60405180910390f35b610343611222565b6040516103509190611a6f565b60405180910390f35b610373600480360381019061036e9190611e12565b61122e565b005b61038f600480360381019061038a9190611b4d565b611469565b6040516103a29796959493929190611d87565b60405180910390f35b6103b36117b2565b6040516103c09190611a6f565b60405180910390f35b3373ffffffffffffffffffffffffffffffffffffffff16600260009054906101000a900473ffffffffffffffffffffffffffffffffffffffff1673ffffffffffffffffffffffffffffffffffffffff1614610459576040517f08c379a000000000000000000000000000000000000000000000000000000000815260040161045090611f49565b60405180910390fd5b61046360006117bf565b600061046f60006117d5565b90506000600760008773ffffffffffffffffffffffffffffffffffffffff1673ffffffffffffffffffffffffffffffffffffffff168152602001908152602001600020905060008160040154146104c557600080fd5b60018160040181905550838160020190816104e09190612175565b50848160010190816104f29190612175565b50858160030160006101000a81548173ffffffffffffffffffffffffffffffffffffffff021916908373ffffffffffffffffffffffffffffffffffffffff160217905550828160070190816105479190612175565b508181600001819055506103e8816006018190555060008160050160006101000a81548160ff0219169083151502179055506006869080600181540180825580915050600190039060005260206000200160009091909190916101000a81548173ffffffffffffffffffffffffffffffffffffffff021916908373ffffffffffffffffffffffffffffffffffffffff160217905550817ff5f39971dd62d9929e3a9feaa6bb77fe7c7da0001babff8a65a7e51ad0201c1986868985600401548660050160009054906101000a900460ff1687600601548a6040516106319796959493929190612247565b60405180910390a2505050505050565b6000600680549050905090565b6003818154811061065e57600080fd5b906000526020600020016000915054906101000a900473ffffffffffffffffffffffffffffffffffffffff1681565b6006818154811061069d57600080fd5b906000526020600020016000915054906101000a900473ffffffffffffffffffffffffffffffffffffffff1681565b600260009054906101000a900473ffffffffffffffffffffffffffffffffffffffff1681565b6000600760003373ffffffffffffffffffffffffffffffffffffffff1673ffffffffffffffffffffffffffffffffffffffff16815260200190815260200160002090508060050160009054906101000a900460ff1615610787576040517f08c379a000000000000000000000000000000000000000000000000000000000815260040161077e90612317565b60405180910390fd5b60008160040154036107ce576040517f08c379a00000000000000000000000000000000000000000000000000000000081526004016107c590612383565b60405180910390fd5b60018160050160006101000a81548160ff0219169083151502179055508181600601819055506005339080600181540180825580915050600190039060005260206000200160009091909190916101000a81548173ffffffffffffffffffffffffffffffffffffffff021916908373ffffffffffffffffffffffffffffffffffffffff1602179055508060040154600460008573ffffffffffffffffffffffffffffffffffffffff1673ffffffffffffffffffffffffffffffffffffffff16815260200190815260200160002060040160008282546108ad91906123d2565b92505081905550505050565b600060608060008060008060606000600760008b73ffffffffffffffffffffffffffffffffffffffff1673ffffffffffffffffffffffffffffffffffffffff168152602001908152602001600020604051806101000160405290816000820154815260200160018201805461092d90611f98565b80601f016020809104026020016040519081016040528092919081815260200182805461095990611f98565b80156109a65780601f1061097b576101008083540402835291602001916109a6565b820191906000526020600020905b81548152906001019060200180831161098957829003601f168201915b505050505081526020016002820180546109bf90611f98565b80601f01602080910402602001604051908101604052809291908181526020018280546109eb90611f98565b8015610a385780601f10610a0d57610100808354040283529160200191610a38565b820191906000526020600020905b815481529060010190602001808311610a1b57829003601f168201915b505050505081526020016003820160009054906101000a900473ffffffffffffffffffffffffffffffffffffffff1673ffffffffffffffffffffffffffffffffffffffff1673ffffffffffffffffffffffffffffffffffffffff168152602001600482015481526020016005820160009054906101000a900460ff1615151515815260200160068201548152602001600782018054610ad690611f98565b80601f0160208091040260200160405190810160405280929190818152602001828054610b0290611f98565b8015610b4f5780601f10610b2457610100808354040283529160200191610b4f565b820191906000526020600020905b815481529060010190602001808311610b3257829003601f168201915b5050505050815250509050806000015181602001518260400151836060015184608001518560a001518660c001518760e001519850985098509850985098509850985050919395975091939597565b60606003805480602002602001604051908101604052809291908181526020018280548015610c2257602002820191906000526020600020905b8160009054906101000a900473ffffffffffffffffffffffffffffffffffffffff1673ffffffffffffffffffffffffffffffffffffffff1681526020019060010190808311610bd8575b5050505050905090565b60058181548110610c3c57600080fd5b906000526020600020016000915054906101000a900473ffffffffffffffffffffffffffffffffffffffff1681565b6004602052806000526040600020600091509050806000015490806001018054610c9490611f98565b80601f0160208091040260200160405190810160405280929190818152602001828054610cc090611f98565b8015610d0d5780601f10610ce257610100808354040283529160200191610d0d565b820191906000526020600020905b815481529060010190602001808311610cf057829003601f168201915b505050505090806002018054610d2290611f98565b80601f0160208091040260200160405190810160405280929190818152602001828054610d4e90611f98565b8015610d9b5780601f10610d7057610100808354040283529160200191610d9b565b820191906000526020600020905b815481529060010190602001808311610d7e57829003601f168201915b505050505090806003018054610db090611f98565b80601f0160208091040260200160405190810160405280929190818152602001828054610ddc90611f98565b8015610e295780601f10610dfe57610100808354040283529160200191610e29565b820191906000526020600020905b815481529060010190602001808311610e0c57829003601f168201915b505050505090806004015490806005018054610e4490611f98565b80601f0160208091040260200160405190810160405280929190818152602001828054610e7090611f98565b8015610ebd5780601f10610e9257610100808354040283529160200191610ebd565b820191906000526020600020905b815481529060010190602001808311610ea057829003601f168201915b5050505050908060060160009054906101000a900473ffffffffffffffffffffffffffffffffffffffff16905087565b60606005805480602002602001604051908101604052809291908181526020018280548015610f7157602002820191906000526020600020905b8160009054906101000a900473ffffffffffffffffffffffffffffffffffffffff1673ffffffffffffffffffffffffffffffffffffffff1681526020019060010190808311610f27575b5050505050905090565b6007602052806000526040600020600091509050806000015490806001018054610fa490611f98565b80601f0160208091040260200160405190810160405280929190818152602001828054610fd090611f98565b801561101d5780601f10610ff25761010080835404028352916020019161101d565b820191906000526020600020905b81548152906001019060200180831161100057829003601f168201915b50505050509080600201805461103290611f98565b80601f016020809104026020016040519081016040528092919081815260200182805461105e90611f98565b80156110ab5780601f10611080576101008083540402835291602001916110ab565b820191906000526020600020905b81548152906001019060200180831161108e57829003601f168201915b5050505050908060030160009054906101000a900473ffffffffffffffffffffffffffffffffffffffff16908060040154908060050160009054906101000a900460ff169080600601549080600701805461110590611f98565b80601f016020809104026020016040519081016040528092919081815260200182805461113190611f98565b801561117e5780601f106111535761010080835404028352916020019161117e565b820191906000526020600020905b81548152906001019060200180831161116157829003601f168201915b5050505050905088565b60018060000154905081565b6060600680548060200260200160405190810160405280929190818152602001828054801561121857602002820191906000526020600020905b8160009054906101000a900473ffffffffffffffffffffffffffffffffffffffff1673ffffffffffffffffffffffffffffffffffffffff16815260200190600101908083116111ce575b5050505050905090565b60008060000154905081565b3373ffffffffffffffffffffffffffffffffffffffff16600260009054906101000a900473ffffffffffffffffffffffffffffffffffffffff1673ffffffffffffffffffffffffffffffffffffffff16146112be576040517f08c379a00000000000000000000000000000000000000000000000000000000081526004016112b590611f49565b60405180910390fd5b6112c860016117bf565b60006112d460016117d5565b90506000600460008873ffffffffffffffffffffffffffffffffffffffff1673ffffffffffffffffffffffffffffffffffffffff16815260200190815260200160002090508281600201908161132a9190612175565b508581600101908161133c9190612175565b50818160000181905550848160030190816113579190612175565b5060008160040181905550868160060160006101000a81548173ffffffffffffffffffffffffffffffffffffffff021916908373ffffffffffffffffffffffffffffffffffffffff160217905550838160050190816113b69190612175565b506003879080600181540180825580915050600190039060005260206000200160009091909190916101000a81548173ffffffffffffffffffffffffffffffffffffffff021916908373ffffffffffffffffffffffffffffffffffffffff160217905550817fbb9d7b570880ab529719b907ab784f2b74e6720a7b7f386e031a521f7eabaac68785888560040154898d60405161145896959493929190612406565b60405180910390a250505050505050565b6000606080606060006060600080600460008a73ffffffffffffffffffffffffffffffffffffffff1673ffffffffffffffffffffffffffffffffffffffff1681526020019081526020016000206040518060e0016040529081600082015481526020016001820180546114db90611f98565b80601f016020809104026020016040519081016040528092919081815260200182805461150790611f98565b80156115545780601f1061152957610100808354040283529160200191611554565b820191906000526020600020905b81548152906001019060200180831161153757829003601f168201915b5050505050815260200160028201805461156d90611f98565b80601f016020809104026020016040519081016040528092919081815260200182805461159990611f98565b80156115e65780601f106115bb576101008083540402835291602001916115e6565b820191906000526020600020905b8154815290600101906020018083116115c957829003601f168201915b505050505081526020016003820180546115ff90611f98565b80601f016020809104026020016040519081016040528092919081815260200182805461162b90611f98565b80156116785780601f1061164d57610100808354040283529160200191611678565b820191906000526020600020905b81548152906001019060200180831161165b57829003601f168201915b505050505081526020016004820154815260200160058201805461169b90611f98565b80601f01602080910402602001604051908101604052809291908181526020018280546116c790611f98565b80156117145780601f106116e957610100808354040283529160200191611714565b820191906000526020600020905b8154815290600101906020018083116116f757829003601f168201915b505050505081526020016006820160009054906101000a900473ffffffffffffffffffffffffffffffffffffffff1673ffffffffffffffffffffffffffffffffffffffff1673ffffffffffffffffffffffffffffffffffffffff16815250509050806000015181602001518260400151836060015184608001518560a001518660c00151975097509750975097509750975050919395979092949650565b6000600380549050905090565b6001816000016000828254019250508190555050565b600081600001549050919050565b6000604051905090565b600080fd5b600080fd5b600073ffffffffffffffffffffffffffffffffffffffff82169050919050565b6000611822826117f7565b9050919050565b61183281611817565b811461183d57600080fd5b50565b60008135905061184f81611829565b92915050565b600080fd5b600080fd5b6000601f19601f8301169050919050565b7f4e487b7100000000000000000000000000000000000000000000000000000000600052604160045260246000fd5b6118a88261185f565b810181811067ffffffffffffffff821117156118c7576118c6611870565b5b80604052505050565b60006118da6117e3565b90506118e6828261189f565b919050565b600067ffffffffffffffff82111561190657611905611870565b5b61190f8261185f565b9050602081019050919050565b82818337600083830152505050565b600061193e611939846118eb565b6118d0565b90508281526020810184848401111561195a5761195961185a565b5b61196584828561191c565b509392505050565b600082601f83011261198257611981611855565b5b813561199284826020860161192b565b91505092915050565b600080600080608085870312156119b5576119b46117ed565b5b60006119c387828801611840565b945050602085013567ffffffffffffffff8111156119e4576119e36117f2565b5b6119f08782880161196d565b935050604085013567ffffffffffffffff811115611a1157611a106117f2565b5b611a1d8782880161196d565b925050606085013567ffffffffffffffff811115611a3e57611a3d6117f2565b5b611a4a8782880161196d565b91505092959194509250565b6000819050919050565b611a6981611a56565b82525050565b6000602082019050611a846000830184611a60565b92915050565b611a9381611a56565b8114611a9e57600080fd5b50565b600081359050611ab081611a8a565b92915050565b600060208284031215611acc57611acb6117ed565b5b6000611ada84828501611aa1565b91505092915050565b611aec81611817565b82525050565b6000602082019050611b076000830184611ae3565b92915050565b60008060408385031215611b2457611b236117ed565b5b6000611b3285828601611840565b9250506020611b4385828601611aa1565b9150509250929050565b600060208284031215611b6357611b626117ed565b5b6000611b7184828501611840565b91505092915050565b600081519050919050565b600082825260208201905092915050565b60005b83811015611bb4578082015181840152602081019050611b99565b60008484015250505050565b6000611bcb82611b7a565b611bd58185611b85565b9350611be5818560208601611b96565b611bee8161185f565b840191505092915050565b60008115159050919050565b611c0e81611bf9565b82525050565b600061010082019050611c2a600083018b611a60565b8181036020830152611c3c818a611bc0565b90508181036040830152611c508189611bc0565b9050611c5f6060830188611ae3565b611c6c6080830187611a60565b611c7960a0830186611c05565b611c8660c0830185611a60565b81810360e0830152611c988184611bc0565b90509998505050505050505050565b600081519050919050565b600082825260208201905092915050565b6000819050602082019050919050565b611cdc81611817565b82525050565b6000611cee8383611cd3565b60208301905092915050565b6000602082019050919050565b6000611d1282611ca7565b611d1c8185611cb2565b9350611d2783611cc3565b8060005b83811015611d58578151611d3f8882611ce2565b9750611d4a83611cfa565b925050600181019050611d2b565b5085935050505092915050565b60006020820190508181036000830152611d7f8184611d07565b905092915050565b600060e082019050611d9c600083018a611a60565b8181036020830152611dae8189611bc0565b90508181036040830152611dc28188611bc0565b90508181036060830152611dd68187611bc0565b9050611de56080830186611a60565b81810360a0830152611df78185611bc0565b9050611e0660c0830184611ae3565b98975050505050505050565b600080600080600060a08688031215611e2e57611e2d6117ed565b5b6000611e3c88828901611840565b955050602086013567ffffffffffffffff811115611e5d57611e5c6117f2565b5b611e698882890161196d565b945050604086013567ffffffffffffffff811115611e8a57611e896117f2565b5b611e968882890161196d565b935050606086013567ffffffffffffffff811115611eb757611eb66117f2565b5b611ec38882890161196d565b925050608086013567ffffffffffffffff811115611ee457611ee36117f2565b5b611ef08882890161196d565b9150509295509295909350565b7f596f7520617265206e6f7420746865206f7267616e697a657200000000000000600082015250565b6000611f33601983611b85565b9150611f3e82611efd565b602082019050919050565b60006020820190508181036000830152611f6281611f26565b9050919050565b7f4e487b7100000000000000000000000000000000000000000000000000000000600052602260045260246000fd5b60006002820490506001821680611fb057607f821691505b602082108103611fc357611fc2611f69565b5b50919050565b60008190508160005260206000209050919050565b60006020601f8301049050919050565b600082821b905092915050565b60006008830261202b7fffffffffffffffffffffffffffffffffffffffffffffffffffffffffffffffff82611fee565b6120358683611fee565b95508019841693508086168417925050509392505050565b6000819050919050565b600061207261206d61206884611a56565b61204d565b611a56565b9050919050565b6000819050919050565b61208c83612057565b6120a061209882612079565b848454611ffb565b825550505050565b600090565b6120b56120a8565b6120c0818484612083565b505050565b5b818110156120e4576120d96000826120ad565b6001810190506120c6565b5050565b601f821115612129576120fa81611fc9565b61210384611fde565b81016020851015612112578190505b61212661211e85611fde565b8301826120c5565b50505b505050565b600082821c905092915050565b600061214c6000198460080261212e565b1980831691505092915050565b6000612165838361213b565b9150826002028217905092915050565b61217e82611b7a565b67ffffffffffffffff81111561219757612196611870565b5b6121a18254611f98565b6121ac8282856120e8565b600060209050601f8311600181146121df57600084156121cd578287015190505b6121d78582612159565b86555061223f565b601f1984166121ed86611fc9565b60005b82811015612215578489015182556001820191506020850194506020810190506121f0565b86831015612232578489015161222e601f89168261213b565b8355505b6001600288020188555050505b505050505050565b600060e0820190508181036000830152612261818a611bc0565b905081810360208301526122758189611bc0565b90506122846040830188611ae3565b6122916060830187611a60565b61229e6080830186611c05565b6122ab60a0830185611a60565b81810360c08301526122bd8184611bc0565b905098975050505050505050565b7f596f75206861766520616c726561647920766f74656400000000000000000000600082015250565b6000612301601683611b85565b915061230c826122cb565b602082019050919050565b60006020820190508181036000830152612330816122f4565b9050919050565b7f596f7520617265206e6f7420616c6c6f77656420746f20766f74650000000000600082015250565b600061236d601b83611b85565b915061237882612337565b602082019050919050565b6000602082019050818103600083015261239c81612360565b9050919050565b7f4e487b7100000000000000000000000000000000000000000000000000000000600052601160045260246000fd5b60006123dd82611a56565b91506123e883611a56565b9250828201905080821115612400576123ff6123a3565b5b92915050565b600060c08201905081810360008301526124208189611bc0565b905081810360208301526124348188611bc0565b905081810360408301526124488187611bc0565b90506124576060830186611a60565b81810360808301526124698185611bc0565b905061247860a0830184611ae3565b97965050505050505056fea2646970667358221220f7eed1209e2df462fb92e3a7b0f37d1061a330ad46412a9f15c4fecc50fb2d6164736f6c63430008110033",
  "linkReferences": {},
  "deployedLinkReferences": {}
}